{
  "contractName": "blockchain_contract",
  "abi": [
    {
      "inputs": [],
      "stateMutability": "nonpayable",
      "type": "constructor"
    },
    {
      "anonymous": false,
      "inputs": [
        {
          "indexed": false,
          "internalType": "uint256",
          "name": "id",
          "type": "uint256"
        },
        {
          "indexed": false,
          "internalType": "string",
          "name": "name",
          "type": "string"
        }
      ],
      "name": "CandidateRegistered",
      "type": "event"
    },
    {
      "anonymous": false,
      "inputs": [
        {
          "indexed": false,
          "internalType": "address",
          "name": "voter",
          "type": "address"
        },
        {
          "indexed": false,
          "internalType": "uint256",
          "name": "candidateId",
          "type": "uint256"
        }
      ],
      "name": "VoteCast",
      "type": "event"
    },
    {
      "anonymous": false,
      "inputs": [
        {
          "indexed": false,
          "internalType": "address",
          "name": "voter",
          "type": "address"
        },
        {
          "indexed": false,
          "internalType": "string",
          "name": "username",
          "type": "string"
        }
      ],
      "name": "VoterRegistered",
      "type": "event"
    },
    {
      "anonymous": false,
      "inputs": [],
      "name": "VotingEnded",
      "type": "event"
    },
    {
      "anonymous": false,
      "inputs": [],
      "name": "VotingStarted",
      "type": "event"
    },
    {
      "inputs": [],
      "name": "admin",
      "outputs": [
        {
          "internalType": "address",
          "name": "",
          "type": "address"
        }
      ],
      "stateMutability": "view",
      "type": "function",
      "constant": true
    },
    {
      "inputs": [
        {
          "internalType": "uint256",
          "name": "",
          "type": "uint256"
        }
      ],
      "name": "candidates",
      "outputs": [
        {
          "internalType": "string",
          "name": "name",
          "type": "string"
        },
        {
          "internalType": "uint256",
          "name": "voteCount",
          "type": "uint256"
        },
        {
          "internalType": "uint256",
          "name": "birthYear",
          "type": "uint256"
        },
        {
          "internalType": "string",
          "name": "party",
          "type": "string"
        },
        {
          "internalType": "string",
          "name": "education",
          "type": "string"
        }
      ],
      "stateMutability": "view",
      "type": "function",
      "constant": true
    },
    {
      "inputs": [],
      "name": "candidatesCount",
      "outputs": [
        {
          "internalType": "uint256",
          "name": "",
          "type": "uint256"
        }
      ],
      "stateMutability": "view",
      "type": "function",
      "constant": true
    },
    {
      "inputs": [
        {
          "internalType": "uint256",
          "name": "",
          "type": "uint256"
        }
      ],
      "name": "voterAddresses",
      "outputs": [
        {
          "internalType": "address",
          "name": "",
          "type": "address"
        }
      ],
      "stateMutability": "view",
      "type": "function",
      "constant": true
    },
    {
      "inputs": [
        {
          "internalType": "address",
          "name": "",
          "type": "address"
        }
      ],
      "name": "voters",
      "outputs": [
        {
          "internalType": "bool",
          "name": "registered",
          "type": "bool"
        },
        {
          "internalType": "bool",
          "name": "voted",
          "type": "bool"
        },
        {
          "internalType": "uint256",
          "name": "vote",
          "type": "uint256"
        },
        {
          "internalType": "string",
          "name": "name",
          "type": "string"
        },
        {
          "internalType": "uint256",
          "name": "birthYear",
          "type": "uint256"
        },
        {
          "internalType": "string",
          "name": "email",
          "type": "string"
        },
        {
          "internalType": "string",
          "name": "mobileNumber",
          "type": "string"
        },
        {
          "internalType": "string",
          "name": "username",
          "type": "string"
        },
        {
          "internalType": "bytes32",
          "name": "passwordHash",
          "type": "bytes32"
        }
      ],
      "stateMutability": "view",
      "type": "function",
      "constant": true
    },
    {
      "inputs": [],
      "name": "votingActive",
      "outputs": [
        {
          "internalType": "bool",
          "name": "",
          "type": "bool"
        }
      ],
      "stateMutability": "view",
      "type": "function",
      "constant": true
    },
    {
      "inputs": [
        {
          "internalType": "string",
          "name": "_name",
          "type": "string"
        },
        {
          "internalType": "uint256",
          "name": "_birthYear",
          "type": "uint256"
        },
        {
          "internalType": "string",
          "name": "_email",
          "type": "string"
        },
        {
          "internalType": "string",
          "name": "_mobileNumber",
          "type": "string"
        },
        {
          "internalType": "string",
          "name": "_username",
          "type": "string"
        },
        {
          "internalType": "string",
          "name": "_password",
          "type": "string"
        }
      ],
      "name": "registerAsVoter",
      "outputs": [],
      "stateMutability": "nonpayable",
      "type": "function"
    },
    {
      "inputs": [
        {
          "internalType": "string",
          "name": "_username",
          "type": "string"
        },
        {
          "internalType": "string",
          "name": "_password",
          "type": "string"
        }
      ],
      "name": "authenticateVoter",
      "outputs": [
        {
          "internalType": "bool",
          "name": "",
          "type": "bool"
        }
      ],
      "stateMutability": "view",
      "type": "function",
      "constant": true
    },
    {
      "inputs": [],
      "name": "startVoting",
      "outputs": [],
      "stateMutability": "nonpayable",
      "type": "function"
    },
    {
      "inputs": [
        {
          "internalType": "uint256",
          "name": "_candidateId",
          "type": "uint256"
        }
      ],
      "name": "vote",
      "outputs": [],
      "stateMutability": "nonpayable",
      "type": "function"
    },
    {
      "inputs": [],
      "name": "endVoting",
      "outputs": [],
      "stateMutability": "nonpayable",
      "type": "function"
    },
    {
      "inputs": [
        {
          "internalType": "uint256",
          "name": "_candidateId",
          "type": "uint256"
        }
      ],
      "name": "getCandidate",
      "outputs": [
        {
          "internalType": "string",
          "name": "",
          "type": "string"
        },
        {
          "internalType": "uint256",
          "name": "",
          "type": "uint256"
        },
        {
          "internalType": "uint256",
          "name": "",
          "type": "uint256"
        },
        {
          "internalType": "string",
          "name": "",
          "type": "string"
        },
        {
          "internalType": "string",
          "name": "",
          "type": "string"
        }
      ],
      "stateMutability": "view",
      "type": "function",
      "constant": true
    },
    {
      "inputs": [],
      "name": "getVotingStatus",
      "outputs": [
        {
          "internalType": "bool",
          "name": "",
          "type": "bool"
        }
      ],
      "stateMutability": "view",
      "type": "function",
      "constant": true
    },
    {
      "inputs": [],
      "name": "getRegisteredVoters",
      "outputs": [
        {
          "internalType": "string[]",
          "name": "",
          "type": "string[]"
        }
      ],
      "stateMutability": "view",
      "type": "function",
      "constant": true
    }
  ],
  "bytecode": "0x60806040523480156200001157600080fd5b50600080546001600160a81b0319163360ff60a01b19161790556040805180820182526005815264416c69636560d81b60208083019190915282518084018452601081526f44656d6f63726174696320506172747960801b818301528351808501909452601784527f50684420696e20436f6d707574657220536369656e636500000000000000000091840191909152620000b1926107c69190620001d2565b6200013f604051806040016040528060038152602001622137b160e91b8152506107c16040518060400160405280601081526020016f52657075626c6963616e20506172747960801b8152506040518060400160405280601e81526020017f4d424120696e20427573696e6573732041646d696e697374726174696f6e0000815250620001d260201b60201c565b620001cc60405180604001604052806007815260200166436861726c696560c81b8152506107c86040518060400160405280600b81526020016a125b99195c195b99195b9d60aa1b8152506040518060400160405280601481526020017f4d61737465727320696e20456475636174696f6e000000000000000000000000815250620001d260201b60201c565b62000435565b60038054906000620001e48362000371565b90915550506040805160a0810182528581526000602080830182905282840187905260608301869052608083018590526003548252600281529290208151805192939192620002379284920190620002cb565b5060208281015160018301556040830151600283015560608301518051620002669260038501920190620002cb565b506080820151805162000284916004840191602090910190620002cb565b509050507f96b6e1d9af8279de0ae4d01600bcae708bdb292c4a8f8f150aff92f5caf56a4260035485604051620002bd92919062000399565b60405180910390a150505050565b828054620002d990620003f9565b90600052602060002090601f016020900481019282620002fd576000855562000348565b82601f106200031857805160ff191683800117855562000348565b8280016001018555821562000348579182015b82811115620003485782518255916020019190600101906200032b565b50620003569291506200035a565b5090565b5b808211156200035657600081556001016200035b565b6000600182016200039257634e487b7160e01b600052601160045260246000fd5b5060010190565b82815260006020604081840152835180604085015260005b81811015620003cf57858101830151858201606001528201620003b1565b81811115620003e2576000606083870101525b50601f01601f191692909201606001949350505050565b600181811c908216806200040e57607f821691505b6020821081036200042f57634e487b7160e01b600052602260045260246000fd5b50919050565b6119c680620004456000396000f3fe608060405234801561001057600080fd5b50600436106100ea5760003560e01c8063581c281c1161008c578063c3403ddf11610066578063c3403ddf146101e9578063dd0e2373146101f1578063e82cd3e21461021c578063f851a4401461022f57600080fd5b8063581c281c1461019c5780636bdc838e146101ae578063a3ec138d146101c157600080fd5b80632d35a8a2116100c85780632d35a8a21461012a5780633477ee2e1461014157806335b8e82014610165578063408e27271461017857600080fd5b80630121b93f146100ef5780631ec6b60a146101045780632bc4a6e71461010c575b600080fd5b6101026100fd3660046113e4565b610242565b005b61010261042e565b6101146104ee565b6040516101219190611459565b60405180910390f35b61013360035481565b604051908152602001610121565b61015461014f3660046113e4565b610679565b6040516101219594939291906114bb565b6101546101733660046113e4565b61083f565b60005461018c90600160a01b900460ff1681565b6040519015158152602001610121565b600054600160a01b900460ff1661018c565b61018c6101bc3660046115af565b610ab6565b6101d46101cf366004611613565b610bf5565b6040516101219998979695949392919061163c565b610102610e63565b6102046101ff3660046113e4565b610f14565b6040516001600160a01b039091168152602001610121565b61010261022a3660046116c0565b610f3e565b600054610204906001600160a01b031681565b600054600160a01b900460ff166102985760405162461bcd60e51b81526020600482015260156024820152742b37ba34b7339034b9903737ba1030b1ba34bb329760591b60448201526064015b60405180910390fd5b3360009081526001602052604090205460ff166102f75760405162461bcd60e51b815260206004820152601f60248201527f596f7520617265206e6f74207265676973746572656420746f20766f74652e00604482015260640161028f565b33600090815260016020526040902054610100900460ff161561035c5760405162461bcd60e51b815260206004820152601760248201527f596f75206861766520616c726561647920766f7465642e000000000000000000604482015260640161028f565b60008111801561036e57506003548111155b6103b25760405162461bcd60e51b815260206004820152601560248201527424b73b30b634b21031b0b73234b230ba329024a21760591b604482015260640161028f565b336000908152600160208181526040808420805461ff001916610100178155830185905584845260029091528220018054916103ed836117b0565b909155505060408051338152602081018390527fa36cc2bebb74db33e9f88110a07ef56e1b31b24b4c4f51b54b1664266e29f45b910160405180910390a150565b6000546001600160a01b031633146104585760405162461bcd60e51b815260040161028f906117c9565b600054600160a01b900460ff16156104b25760405162461bcd60e51b815260206004820152601760248201527f566f74696e6720616c726561647920737461727465642e000000000000000000604482015260640161028f565b6000805460ff60a01b1916600160a01b1781556040517f877e2548498f42b7975a186b94ef1d32c86d420b7b806dd2be2bea293b8959049190a1565b6000546060906001600160a01b0316331461051b5760405162461bcd60e51b815260040161028f906117c9565b60045460009067ffffffffffffffff8111156105395761053961150c565b60405190808252806020026020018201604052801561056c57816020015b60608152602001906001900390816105575790505b50905060005b6004548110156106735760016000600483815481106105935761059361180c565b60009182526020808320909101546001600160a01b03168352820192909252604001902060060180546105c590611822565b80601f01602080910402602001604051908101604052809291908181526020018280546105f190611822565b801561063e5780601f106106135761010080835404028352916020019161063e565b820191906000526020600020905b81548152906001019060200180831161062157829003601f168201915b50505050508282815181106106555761065561180c565b6020026020010181905250808061066b906117b0565b915050610572565b50905090565b60026020526000908152604090208054819061069490611822565b80601f01602080910402602001604051908101604052809291908181526020018280546106c090611822565b801561070d5780601f106106e25761010080835404028352916020019161070d565b820191906000526020600020905b8154815290600101906020018083116106f057829003601f168201915b50505050509080600101549080600201549080600301805461072e90611822565b80601f016020809104026020016040519081016040528092919081815260200182805461075a90611822565b80156107a75780601f1061077c576101008083540402835291602001916107a7565b820191906000526020600020905b81548152906001019060200180831161078a57829003601f168201915b5050505050908060040180546107bc90611822565b80601f01602080910402602001604051908101604052809291908181526020018280546107e890611822565b80156108355780601f1061080a57610100808354040283529160200191610835565b820191906000526020600020905b81548152906001019060200180831161081857829003601f168201915b5050505050905085565b606060008060608060008611801561085957506003548611155b61089d5760405162461bcd60e51b815260206004820152601560248201527424b73b30b634b21031b0b73234b230ba329024a21760591b604482015260640161028f565b600086815260026020526040808220815160a081019092528054829082906108c490611822565b80601f01602080910402602001604051908101604052809291908181526020018280546108f090611822565b801561093d5780601f106109125761010080835404028352916020019161093d565b820191906000526020600020905b81548152906001019060200180831161092057829003601f168201915b50505050508152602001600182015481526020016002820154815260200160038201805461096a90611822565b80601f016020809104026020016040519081016040528092919081815260200182805461099690611822565b80156109e35780601f106109b8576101008083540402835291602001916109e3565b820191906000526020600020905b8154815290600101906020018083116109c657829003601f168201915b505050505081526020016004820180546109fc90611822565b80601f0160208091040260200160405190810160405280929190818152602001828054610a2890611822565b8015610a755780601f10610a4a57610100808354040283529160200191610a75565b820191906000526020600020905b815481529060010190602001808311610a5857829003601f168201915b50505050508152505090506000610a8f82604001516112fa565b825160208401516060850151608090950151919b909a509198509296509194509092505050565b3360009081526001602052604081205460ff16610b155760405162461bcd60e51b815260206004820152601f60248201527f596f7520617265206e6f74207265676973746572656420746f20766f74652e00604482015260640161028f565b82604051602001610b26919061185c565b60408051601f19818403018152828252805160209182012033600090815260018352929092209192610b5c926006019101611878565b6040516020818303038152906040528051906020012014610bb35760405162461bcd60e51b815260206004820152601160248201527024b73b30b634b2103ab9b2b93730b6b29760791b604482015260640161028f565b81604051602001610bc4919061185c565b60408051808303601f1901815291815281516020928301203360009081526001909352912060070154149392505050565b600160208190526000918252604090912080549181015460028201805460ff80861695610100900416939190610c2a90611822565b80601f0160208091040260200160405190810160405280929190818152602001828054610c5690611822565b8015610ca35780601f10610c7857610100808354040283529160200191610ca3565b820191906000526020600020905b815481529060010190602001808311610c8657829003601f168201915b505050505090806003015490806004018054610cbe90611822565b80601f0160208091040260200160405190810160405280929190818152602001828054610cea90611822565b8015610d375780601f10610d0c57610100808354040283529160200191610d37565b820191906000526020600020905b815481529060010190602001808311610d1a57829003601f168201915b505050505090806005018054610d4c90611822565b80601f0160208091040260200160405190810160405280929190818152602001828054610d7890611822565b8015610dc55780601f10610d9a57610100808354040283529160200191610dc5565b820191906000526020600020905b815481529060010190602001808311610da857829003601f168201915b505050505090806006018054610dda90611822565b80601f0160208091040260200160405190810160405280929190818152602001828054610e0690611822565b8015610e535780601f10610e2857610100808354040283529160200191610e53565b820191906000526020600020905b815481529060010190602001808311610e3657829003601f168201915b5050505050908060070154905089565b6000546001600160a01b03163314610e8d5760405162461bcd60e51b815260040161028f906117c9565b600054600160a01b900460ff16610ede5760405162461bcd60e51b81526020600482015260156024820152742b37ba34b7339034b9903737ba1030b1ba34bb329760591b604482015260640161028f565b6000805460ff60a01b191681556040517f7a19ed057db79e3c2fa0b97a54b43bef4fce74b31bb6c01af514b9a18a7f70ab9190a1565b60048181548110610f2457600080fd5b6000918252602090912001546001600160a01b0316905081565b3360009081526001602052604090205460ff1615610f9e5760405162461bcd60e51b815260206004820152601960248201527f566f74657220616c726561647920726567697374657265642e00000000000000604482015260640161028f565b60128561016d6018603c610fb28142611913565b610fbc9190611913565b610fc69190611913565b610fd09190611913565b610fdc906107b2611935565b610fe6919061194d565b101561104b5760405162461bcd60e51b815260206004820152602e60248201527f596f75206d757374206265206174206c65617374203138207965617273206f6c60448201526d32103a37903932b3b4b9ba32b91760911b606482015260840161028f565b6005845111801561108d57508360048551611066919061194d565b815181106110765761107661180c565b6020910101516001600160f81b031916601760f91b145b6110e95760405162461bcd60e51b815260206004820152602760248201527f496e76616c696420656d61696c20666f726d617420286d75737420656e6420696044820152666e202e636f6d2960c81b606482015260840161028f565b8251600a1461114b5760405162461bcd60e51b815260206004820152602860248201527f4d6f62696c65206e756d626572206d7573742062652065786163746c79203130604482015267103234b3b4ba399760c11b606482015260840161028f565b60008160405160200161115e919061185c565b60408051808303601f1901815282825280516020918201206101208401835260018085526000838601818152868601828152606088018f8152608089018f905260a089018e905260c089018d905260e089018c9052610100808a018790523385528588529790932088518154935161ffff1990941690151561ff00191617921515909702919091178655519185019190915551805191955061120792600285019291019061134b565b506080820151600382015560a0820151805161122d91600484019160209091019061134b565b5060c0820151805161124991600584019160209091019061134b565b5060e0820151805161126591600684019160209091019061134b565b506101009190910151600790910155600480546001810182556000919091527f8a35acfbc15ff81a39ae7d344fd709f28e8600b4aa8c65c6b64bfe7fe36bd19b0180546001600160a01b031916339081179091556040517fffeb7702be7dcd8fee170d954b70afb9a7c78f7f5cff232d037e7b9d8243356a916112e9918690611964565b60405180910390a150505050505050565b60008061016d6018603c61130e8142611913565b6113189190611913565b6113229190611913565b61132c9190611913565b611338906107b2611935565b9050611344838261194d565b9392505050565b82805461135790611822565b90600052602060002090601f01602090048101928261137957600085556113bf565b82601f1061139257805160ff19168380011785556113bf565b828001600101855582156113bf579182015b828111156113bf5782518255916020019190600101906113a4565b506113cb9291506113cf565b5090565b5b808211156113cb57600081556001016113d0565b6000602082840312156113f657600080fd5b5035919050565b60005b83811015611418578181015183820152602001611400565b83811115611427576000848401525b50505050565b600081518084526114458160208601602086016113fd565b601f01601f19169290920160200192915050565b6000602080830181845280855180835260408601915060408160051b870101925083870160005b828110156114ae57603f1988860301845261149c85835161142d565b94509285019290850190600101611480565b5092979650505050505050565b60a0815260006114ce60a083018861142d565b86602084015285604084015282810360608401526114ec818661142d565b90508281036080840152611500818561142d565b98975050505050505050565b634e487b7160e01b600052604160045260246000fd5b600082601f83011261153357600080fd5b813567ffffffffffffffff8082111561154e5761154e61150c565b604051601f8301601f19908116603f011681019082821181831017156115765761157661150c565b8160405283815286602085880101111561158f57600080fd5b836020870160208301376000602085830101528094505050505092915050565b600080604083850312156115c257600080fd5b823567ffffffffffffffff808211156115da57600080fd5b6115e686838701611522565b935060208501359150808211156115fc57600080fd5b5061160985828601611522565b9150509250929050565b60006020828403121561162557600080fd5b81356001600160a01b038116811461134457600080fd5b60006101208b151583528a151560208401528960408401528060608401526116668184018a61142d565b905087608084015282810360a0840152611680818861142d565b905082810360c0840152611694818761142d565b905082810360e08401526116a8818661142d565b915050826101008301529a9950505050505050505050565b60008060008060008060c087890312156116d957600080fd5b863567ffffffffffffffff808211156116f157600080fd5b6116fd8a838b01611522565b975060208901359650604089013591508082111561171a57600080fd5b6117268a838b01611522565b9550606089013591508082111561173c57600080fd5b6117488a838b01611522565b9450608089013591508082111561175e57600080fd5b61176a8a838b01611522565b935060a089013591508082111561178057600080fd5b5061178d89828a01611522565b9150509295509295509295565b634e487b7160e01b600052601160045260246000fd5b6000600182016117c2576117c261179a565b5060010190565b60208082526023908201527f4f6e6c792061646d696e2063616e20706572666f726d2074686973206163746960408201526237b71760e91b606082015260800190565b634e487b7160e01b600052603260045260246000fd5b600181811c9082168061183657607f821691505b60208210810361185657634e487b7160e01b600052602260045260246000fd5b50919050565b6000825161186e8184602087016113fd565b9190910192915050565b600080835481600182811c91508083168061189457607f831692505b602080841082036118b357634e487b7160e01b86526022600452602486fd5b8180156118c757600181146118d857611905565b60ff19861689528489019650611905565b60008a81526020902060005b868110156118fd5781548b8201529085019083016118e4565b505084890196505b509498975050505050505050565b60008261193057634e487b7160e01b600052601260045260246000fd5b500490565b600082198211156119485761194861179a565b500190565b60008282101561195f5761195f61179a565b500390565b6001600160a01b03831681526040602082018190526000906119889083018461142d565b94935050505056fea26469706673582212204279707e6f623095fc5530f9fe2feca17ea0f7356dda34e62a1a3fa32d445d7c64736f6c634300080d0033",
  "immutableReferences": {},
  "source": "// SPDX-License-Identifier: MIT\r\npragma solidity ^0.8.13;\r\n\r\ncontract blockchain_contract {\r\n    address public admin;\r\n    bool public votingActive;\r\n\r\n    struct Candidate {\r\n        string name;\r\n        uint voteCount;\r\n        uint birthYear;  // Add birthYear to calculate age\r\n        string party;    // Add party\r\n        string education; // Add education\r\n    }\r\n\r\n    struct Voter {\r\n        bool registered;\r\n        bool voted;\r\n        uint vote;\r\n        string name;\r\n        uint birthYear; // Change from string to uint\r\n        string email;\r\n        string mobileNumber;\r\n        string username;\r\n        bytes32 passwordHash;\r\n    }\r\n\r\n    mapping(address => Voter) public voters;\r\n    mapping(uint => Candidate) public candidates;\r\n    uint public candidatesCount;\r\n\r\n    address[] public voterAddresses; // Stores all registered voter addresses\r\n\r\n    event CandidateRegistered(uint id, string name);\r\n    event VoterRegistered(address voter, string username);\r\n    event VoteCast(address voter, uint candidateId);\r\n    event VotingStarted();\r\n    event VotingEnded();\r\n\r\n    modifier onlyAdmin() {\r\n        require(msg.sender == admin, \"Only admin can perform this action.\");\r\n        _;\r\n    }\r\n\r\n    modifier votingOpen() {\r\n        require(votingActive, \"Voting is not active.\");\r\n        _;\r\n    }\r\n\r\n    constructor() {\r\n        admin = msg.sender;\r\n        votingActive = false;\r\n\r\n        // Pre-registering sample candidates with party and education information\r\n        addInitialCandidate(\"Alice\", 1990, \"Democratic Party\", \"PhD in Computer Science\");\r\n        addInitialCandidate(\"Bob\", 1985, \"Republican Party\", \"MBA in Business Administration\");\r\n        addInitialCandidate(\"Charlie\", 1992, \"Independent\", \"Masters in Education\");\r\n    }\r\n\r\n    function addInitialCandidate(\r\n        string memory _name, \r\n        uint _birthYear, \r\n        string memory _party, \r\n        string memory _education\r\n    ) internal {\r\n        candidatesCount++;\r\n        candidates[candidatesCount] = Candidate(_name, 0, _birthYear, _party, _education);\r\n        emit CandidateRegistered(candidatesCount, _name);\r\n    }\r\n\r\n    function calculateAge(uint _birthYear) internal view returns (uint) {\r\n        uint currentYear = block.timestamp / 60 / 60 / 24 / 365 + 1970; // Approximate year from timestamp\r\n        return currentYear - _birthYear;\r\n    }\r\n\r\n    function registerAsVoter(\r\n        string memory _name,\r\n        uint _birthYear,\r\n        string memory _email,\r\n        string memory _mobileNumber,\r\n        string memory _username,\r\n        string memory _password\r\n    ) public {\r\n        require(!voters[msg.sender].registered, \"Voter already registered.\");\r\n        require((block.timestamp / 60 / 60 / 24 / 365 + 1970) - _birthYear >= 18, \"You must be at least 18 years old to register.\"); // Age check\r\n\r\n        require(bytes(_email).length > 5 && bytes(_email)[bytes(_email).length - 4] == '.', \"Invalid email format (must end in .com)\");\r\n        require(bytes(_mobileNumber).length == 10, \"Mobile number must be exactly 10 digits.\");\r\n\r\n        bytes32 passwordHash = keccak256(abi.encodePacked(_password));\r\n\r\n        voters[msg.sender] = Voter(true, false, 0, _name, _birthYear, _email, _mobileNumber, _username, passwordHash);\r\n        voterAddresses.push(msg.sender); // Store the voter's address\r\n\r\n        emit VoterRegistered(msg.sender, _username);\r\n    }\r\n\r\n    function authenticateVoter(string memory _username, string memory _password) public view returns (bool) {\r\n        require(voters[msg.sender].registered, \"You are not registered to vote.\");\r\n        require(keccak256(abi.encodePacked(voters[msg.sender].username)) == keccak256(abi.encodePacked(_username)), \"Invalid username.\");\r\n        return voters[msg.sender].passwordHash == keccak256(abi.encodePacked(_password));\r\n    }\r\n\r\n    function startVoting() public onlyAdmin {\r\n        require(!votingActive, \"Voting already started.\");\r\n        votingActive = true;\r\n        emit VotingStarted();\r\n    }\r\n\r\n    function vote(uint _candidateId) public votingOpen {\r\n        require(voters[msg.sender].registered, \"You are not registered to vote.\");\r\n        require(!voters[msg.sender].voted, \"You have already voted.\");\r\n        require(_candidateId > 0 && _candidateId <= candidatesCount, \"Invalid candidate ID.\");\r\n\r\n        voters[msg.sender].voted = true;\r\n        voters[msg.sender].vote = _candidateId;\r\n        candidates[_candidateId].voteCount++;\r\n\r\n        emit VoteCast(msg.sender, _candidateId);\r\n    }\r\n\r\n    function endVoting() public onlyAdmin {\r\n        require(votingActive, \"Voting is not active.\");\r\n        votingActive = false;\r\n        emit VotingEnded();\r\n    }\r\n\r\n    function getCandidate(uint _candidateId) public view returns (string memory, uint, uint, string memory, string memory) {\r\n        require(_candidateId > 0 && _candidateId <= candidatesCount, \"Invalid candidate ID.\");\r\n        Candidate memory candidate = candidates[_candidateId];\r\n        uint age = calculateAge(candidate.birthYear);\r\n        return (candidate.name, candidate.voteCount, age, candidate.party, candidate.education);\r\n    }\r\n\r\n    function getVotingStatus() public view returns (bool) {\r\n        return votingActive;\r\n    }\r\n\r\n    function getRegisteredVoters() public view onlyAdmin returns (string[] memory) {\r\n        string[] memory usernames = new string[](voterAddresses.length);\r\n        for (uint i = 0; i < voterAddresses.length; i++) {\r\n            usernames[i] = voters[voterAddresses[i]].username;\r\n        }\r\n        return usernames;\r\n    }\r\n}\r\n",
  "sourcePath": "C:\\Users\\HP\\Downloads\\VS Code files\\BlockchainVotingApp\\blockchain-app\\contracts\\blockchain_contract.sol",
  "compiler": {
    "name": "solc",
    "version": "0.8.13+commit.abaa5c0e.Emscripten.clang"
  },
  "schemaVersion": "3.4.16",
  "updatedAt": "2025-04-01T07:28:12.655Z",
  "networkType": "ethereum",
  "devdoc": {
    "kind": "dev",
    "methods": {},
    "version": 1
  },
  "userdoc": {
    "kind": "user",
    "methods": {},
    "version": 1
  }
}