{
  "contractName": "blockchain_contract",
  "abi": [
    {
      "inputs": [],
      "stateMutability": "nonpayable",
      "type": "constructor"
    },
    {
      "anonymous": false,
      "inputs": [
        {
          "indexed": false,
          "internalType": "uint256",
          "name": "id",
          "type": "uint256"
        },
        {
          "indexed": false,
          "internalType": "string",
          "name": "name",
          "type": "string"
        }
      ],
      "name": "CandidateRegistered",
      "type": "event"
    },
    {
      "anonymous": false,
      "inputs": [
        {
          "indexed": false,
          "internalType": "address",
          "name": "voter",
          "type": "address"
        },
        {
          "indexed": false,
          "internalType": "uint256",
          "name": "candidateId",
          "type": "uint256"
        }
      ],
      "name": "VoteCast",
      "type": "event"
    },
    {
      "anonymous": false,
      "inputs": [
        {
          "indexed": false,
          "internalType": "address",
          "name": "voter",
          "type": "address"
        },
        {
          "indexed": false,
          "internalType": "uint256",
          "name": "voterId",
          "type": "uint256"
        }
      ],
      "name": "VoterRegistered",
      "type": "event"
    },
    {
      "anonymous": false,
      "inputs": [],
      "name": "VotingEnded",
      "type": "event"
    },
    {
      "anonymous": false,
      "inputs": [],
      "name": "VotingStarted",
      "type": "event"
    },
    {
      "inputs": [],
      "name": "admin",
      "outputs": [
        {
          "internalType": "address",
          "name": "",
          "type": "address"
        }
      ],
      "stateMutability": "view",
      "type": "function",
      "constant": true
    },
    {
      "inputs": [
        {
          "internalType": "uint256",
          "name": "",
          "type": "uint256"
        }
      ],
      "name": "candidates",
      "outputs": [
        {
          "internalType": "string",
          "name": "name",
          "type": "string"
        },
        {
          "internalType": "uint256",
          "name": "voteCount",
          "type": "uint256"
        }
      ],
      "stateMutability": "view",
      "type": "function",
      "constant": true
    },
    {
      "inputs": [],
      "name": "candidatesCount",
      "outputs": [
        {
          "internalType": "uint256",
          "name": "",
          "type": "uint256"
        }
      ],
      "stateMutability": "view",
      "type": "function",
      "constant": true
    },
    {
      "inputs": [
        {
          "internalType": "address",
          "name": "",
          "type": "address"
        }
      ],
      "name": "voters",
      "outputs": [
        {
          "internalType": "bool",
          "name": "registered",
          "type": "bool"
        },
        {
          "internalType": "bool",
          "name": "voted",
          "type": "bool"
        },
        {
          "internalType": "uint256",
          "name": "vote",
          "type": "uint256"
        },
        {
          "internalType": "uint256",
          "name": "voterId",
          "type": "uint256"
        },
        {
          "internalType": "bytes32",
          "name": "passwordHash",
          "type": "bytes32"
        }
      ],
      "stateMutability": "view",
      "type": "function",
      "constant": true
    },
    {
      "inputs": [],
      "name": "votingActive",
      "outputs": [
        {
          "internalType": "bool",
          "name": "",
          "type": "bool"
        }
      ],
      "stateMutability": "view",
      "type": "function",
      "constant": true
    },
    {
      "inputs": [
        {
          "internalType": "address",
          "name": "_voter",
          "type": "address"
        },
        {
          "internalType": "uint256",
          "name": "_voterId",
          "type": "uint256"
        },
        {
          "internalType": "string",
          "name": "_password",
          "type": "string"
        }
      ],
      "name": "registerVoter",
      "outputs": [],
      "stateMutability": "nonpayable",
      "type": "function"
    },
    {
      "inputs": [
        {
          "internalType": "uint256",
          "name": "_voterId",
          "type": "uint256"
        },
        {
          "internalType": "string",
          "name": "_password",
          "type": "string"
        }
      ],
      "name": "registerAsVoter",
      "outputs": [],
      "stateMutability": "nonpayable",
      "type": "function"
    },
    {
      "inputs": [
        {
          "internalType": "uint256",
          "name": "_voterId",
          "type": "uint256"
        },
        {
          "internalType": "string",
          "name": "_password",
          "type": "string"
        }
      ],
      "name": "authenticateVoter",
      "outputs": [
        {
          "internalType": "bool",
          "name": "",
          "type": "bool"
        }
      ],
      "stateMutability": "view",
      "type": "function",
      "constant": true
    },
    {
      "inputs": [],
      "name": "startVoting",
      "outputs": [],
      "stateMutability": "nonpayable",
      "type": "function"
    },
    {
      "inputs": [
        {
          "internalType": "uint256",
          "name": "_candidateId",
          "type": "uint256"
        },
        {
          "internalType": "uint256",
          "name": "_voterId",
          "type": "uint256"
        },
        {
          "internalType": "string",
          "name": "_password",
          "type": "string"
        }
      ],
      "name": "vote",
      "outputs": [],
      "stateMutability": "nonpayable",
      "type": "function"
    },
    {
      "inputs": [],
      "name": "endVoting",
      "outputs": [],
      "stateMutability": "nonpayable",
      "type": "function"
    },
    {
      "inputs": [
        {
          "internalType": "uint256",
          "name": "_candidateId",
          "type": "uint256"
        }
      ],
      "name": "getCandidate",
      "outputs": [
        {
          "internalType": "string",
          "name": "",
          "type": "string"
        },
        {
          "internalType": "uint256",
          "name": "",
          "type": "uint256"
        }
      ],
      "stateMutability": "view",
      "type": "function",
      "constant": true
    },
    {
      "inputs": [],
      "name": "getVotingStatus",
      "outputs": [
        {
          "internalType": "bool",
          "name": "",
          "type": "bool"
        }
      ],
      "stateMutability": "view",
      "type": "function",
      "constant": true
    }
  ],
  "bytecode": "0x60806040523480156200001157600080fd5b50600080546001600160a81b0319163360ff60a01b1916179055604080518082019091526005815264416c69636560d81b60208201526200005290620000a6565b6040805180820190915260038152622137b160e91b60208201526200007790620000a6565b604080518082019091526007815266436861726c696560c81b6020820152620000a090620000a6565b620002ae565b60038054906000620000b883620001ea565b9091555050604080518082018252828152600060208083018290526003548252600281529290208151805192939192620000f6928492019062000144565b50602082015181600101559050507f96b6e1d9af8279de0ae4d01600bcae708bdb292c4a8f8f150aff92f5caf56a42600354826040516200013992919062000212565b60405180910390a150565b828054620001529062000272565b90600052602060002090601f016020900481019282620001765760008555620001c1565b82601f106200019157805160ff1916838001178555620001c1565b82800160010185558215620001c1579182015b82811115620001c1578251825591602001919060010190620001a4565b50620001cf929150620001d3565b5090565b5b80821115620001cf5760008155600101620001d4565b6000600182016200020b57634e487b7160e01b600052601160045260246000fd5b5060010190565b82815260006020604081840152835180604085015260005b8181101562000248578581018301518582016060015282016200022a565b818111156200025b576000606083870101525b50601f01601f191692909201606001949350505050565b600181811c908216806200028757607f821691505b602082108103620002a857634e487b7160e01b600052602260045260246000fd5b50919050565b610f1980620002be6000396000f3fe608060405234801561001057600080fd5b50600436106100cf5760003560e01c80636900716a1161008c578063a1bbfc0511610066578063a1bbfc051461019d578063a3ec138d146101b0578063c3403ddf1461021b578063f851a4401461022357600080fd5b80636900716a14610164578063862aabbd146101775780639fee03511461018a57600080fd5b80631ec6b60a146100d45780632d35a8a2146100de5780633477ee2e146100fa57806335b8e8201461011b578063408e27271461012e578063581c281c14610152575b600080fd5b6100dc61024e565b005b6100e760035481565b6040519081526020015b60405180910390f35b61010d610108366004610be6565b610317565b6040516100f1929190610c2f565b61010d610129366004610be6565b6103bb565b60005461014290600160a01b900460ff1681565b60405190151581526020016100f1565b600054600160a01b900460ff16610142565b6100dc610172366004610d0d565b6104d8565b610142610185366004610d0d565b61060f565b6100dc610198366004610d70565b610705565b6100dc6101ab366004610dc7565b61087a565b6101f16101be366004610e01565b6001602081905260009182526040909120805491810154600282015460039092015460ff80851694610100900416929085565b6040805195151586529315156020860152928401919091526060830152608082015260a0016100f1565b6100dc610b35565b600054610236906001600160a01b031681565b6040516001600160a01b0390911681526020016100f1565b6000546001600160a01b031633146102815760405162461bcd60e51b815260040161027890610e23565b60405180910390fd5b600054600160a01b900460ff16156102db5760405162461bcd60e51b815260206004820152601760248201527f566f74696e6720616c726561647920737461727465642e0000000000000000006044820152606401610278565b6000805460ff60a01b1916600160a01b1781556040517f877e2548498f42b7975a186b94ef1d32c86d420b7b806dd2be2bea293b8959049190a1565b60026020526000908152604090208054819061033290610e66565b80601f016020809104026020016040519081016040528092919081815260200182805461035e90610e66565b80156103ab5780601f10610380576101008083540402835291602001916103ab565b820191906000526020600020905b81548152906001019060200180831161038e57829003601f168201915b5050505050908060010154905082565b6060600080831180156103d057506003548311155b6104145760405162461bcd60e51b815260206004820152601560248201527424b73b30b634b21031b0b73234b230ba329024a21760591b6044820152606401610278565b600083815260026020526040808220815180830190925280548290829061043a90610e66565b80601f016020809104026020016040519081016040528092919081815260200182805461046690610e66565b80156104b35780601f10610488576101008083540402835291602001916104b3565b820191906000526020600020905b81548152906001019060200180831161049657829003601f168201915b5050509183525050600191909101546020918201528151910151909590945092505050565b3360009081526001602052604090205460ff16156105345760405162461bcd60e51b81526020600482015260196024820152782b37ba32b91030b63932b0b23c903932b3b4b9ba32b932b21760391b6044820152606401610278565b6000816040516020016105479190610ea0565b60408051808303601f19018152828252805160209182012060a08401835260018085526000838601818152868601828152606088018b815260808901868152338086528689529489902099518a54945161ffff1990951690151561ff0019161761010094151594909402939093178955905193880193909355915160028701559051600390950194909455825193845290830186905292507ff16ce2c2236e2c6e3df646f80d657bceef4cd7f3a240c47e82adfa17a5f47241910160405180910390a1505050565b3360009081526001602052604081205460ff1661066e5760405162461bcd60e51b815260206004820152601f60248201527f596f7520617265206e6f74207265676973746572656420746f20766f74652e006044820152606401610278565b3360009081526001602052604090206002015483146106c35760405162461bcd60e51b815260206004820152601160248201527024b73b30b634b2103b37ba32b91024a21760791b6044820152606401610278565b816040516020016106d49190610ea0565b60408051808303601f1901815291815281516020928301203360009081526001909352912060030154149392505050565b6000546001600160a01b0316331461072f5760405162461bcd60e51b815260040161027890610e23565b6001600160a01b03831660009081526001602052604090205460ff16156107945760405162461bcd60e51b81526020600482015260196024820152782b37ba32b91030b63932b0b23c903932b3b4b9ba32b932b21760391b6044820152606401610278565b6000816040516020016107a79190610ea0565b60408051808303601f19018152828252805160209182012060a08401835260018085526000838601818152868601828152606088018b8152608089018681526001600160a01b038e168086528689529489902099518a54945161ffff1990951690151561ff0019161761010094151594909402939093178955905193880193909355915160028701559051600390950194909455825193845290830186905292507ff16ce2c2236e2c6e3df646f80d657bceef4cd7f3a240c47e82adfa17a5f4724191015b60405180910390a150505050565b600054600160a01b900460ff166108cb5760405162461bcd60e51b81526020600482015260156024820152742b37ba34b7339034b9903737ba1030b1ba34bb329760591b6044820152606401610278565b3360009081526001602052604090205460ff1661092a5760405162461bcd60e51b815260206004820152601f60248201527f596f7520617265206e6f74207265676973746572656420746f20766f74652e006044820152606401610278565b33600090815260016020526040902054610100900460ff161561098f5760405162461bcd60e51b815260206004820152601760248201527f596f75206861766520616c726561647920766f7465642e0000000000000000006044820152606401610278565b6000831180156109a157506003548311155b6109e55760405162461bcd60e51b815260206004820152601560248201527424b73b30b634b21031b0b73234b230ba329024a21760591b6044820152606401610278565b336000908152600160205260409020600201548214610a3c5760405162461bcd60e51b815260206004820152601360248201527224b731b7b93932b1ba102b37ba32b91024a21760691b6044820152606401610278565b600081604051602001610a4f9190610ea0565b60408051601f19818403018152918152815160209283012033600090815260019093529120600301549091508114610abf5760405162461bcd60e51b8152602060048201526013602482015272496e636f72726563742070617373776f72642160681b6044820152606401610278565b336000908152600160208181526040808420805461ff00191661010017815583018890558784526002909152822001805491610afa83610ebc565b909155505060408051338152602081018690527fa36cc2bebb74db33e9f88110a07ef56e1b31b24b4c4f51b54b1664266e29f45b910161086c565b6000546001600160a01b03163314610b5f5760405162461bcd60e51b815260040161027890610e23565b600054600160a01b900460ff16610bb05760405162461bcd60e51b81526020600482015260156024820152742b37ba34b7339034b9903737ba1030b1ba34bb329760591b6044820152606401610278565b6000805460ff60a01b191681556040517f7a19ed057db79e3c2fa0b97a54b43bef4fce74b31bb6c01af514b9a18a7f70ab9190a1565b600060208284031215610bf857600080fd5b5035919050565b60005b83811015610c1a578181015183820152602001610c02565b83811115610c29576000848401525b50505050565b6040815260008351806040840152610c4e816060850160208801610bff565b602083019390935250601f91909101601f191601606001919050565b634e487b7160e01b600052604160045260246000fd5b600082601f830112610c9157600080fd5b813567ffffffffffffffff80821115610cac57610cac610c6a565b604051601f8301601f19908116603f01168101908282118183101715610cd457610cd4610c6a565b81604052838152866020858801011115610ced57600080fd5b836020870160208301376000602085830101528094505050505092915050565b60008060408385031215610d2057600080fd5b82359150602083013567ffffffffffffffff811115610d3e57600080fd5b610d4a85828601610c80565b9150509250929050565b80356001600160a01b0381168114610d6b57600080fd5b919050565b600080600060608486031215610d8557600080fd5b610d8e84610d54565b925060208401359150604084013567ffffffffffffffff811115610db157600080fd5b610dbd86828701610c80565b9150509250925092565b600080600060608486031215610ddc57600080fd5b8335925060208401359150604084013567ffffffffffffffff811115610db157600080fd5b600060208284031215610e1357600080fd5b610e1c82610d54565b9392505050565b60208082526023908201527f4f6e6c792061646d696e2063616e20706572666f726d2074686973206163746960408201526237b71760e91b606082015260800190565b600181811c90821680610e7a57607f821691505b602082108103610e9a57634e487b7160e01b600052602260045260246000fd5b50919050565b60008251610eb2818460208701610bff565b9190910192915050565b600060018201610edc57634e487b7160e01b600052601160045260246000fd5b506001019056fea2646970667358221220e82703cc27dbb6be7e3512281a19815746eb04d24109e03bca417acdc09d69f164736f6c634300080d0033",
  "immutableReferences": {},
  "source": "// SPDX-License-Identifier: MIT\r\npragma solidity ^0.8.13;\r\n\r\ncontract blockchain_contract {\r\n    address public admin;\r\n    bool public votingActive;\r\n\r\n    struct Candidate {\r\n        string name;\r\n        uint voteCount;\r\n    }\r\n\r\n    struct Voter {\r\n        bool registered;\r\n        bool voted;\r\n        uint vote;\r\n        uint voterId;\r\n        bytes32 passwordHash;  //securely store password as a hash\r\n    }\r\n\r\n    mapping(address => Voter) public voters;\r\n    mapping(uint => Candidate) public candidates;\r\n    uint public candidatesCount;\r\n\r\n    event CandidateRegistered(uint id, string name);\r\n    event VoterRegistered(address voter, uint voterId);\r\n    event VoteCast(address voter, uint candidateId);\r\n    event VotingStarted();\r\n    event VotingEnded();\r\n\r\n    modifier onlyAdmin() {\r\n        require(msg.sender == admin, \"Only admin can perform this action.\");\r\n        _;\r\n    }\r\n\r\n    modifier votingOpen() {\r\n        require(votingActive, \"Voting is not active.\");\r\n        _;\r\n    }\r\n\r\n    constructor() {\r\n        admin = msg.sender;\r\n        votingActive = false;\r\n\r\n        // Pre-registering sample candidates\r\n        addInitialCandidate(\"Alice\");\r\n        addInitialCandidate(\"Bob\");\r\n        addInitialCandidate(\"Charlie\");\r\n    }\r\n\r\n    function addInitialCandidate(string memory _name) internal {\r\n        candidatesCount++;\r\n        candidates[candidatesCount] = Candidate(_name, 0);\r\n        emit CandidateRegistered(candidatesCount, _name);\r\n    }\r\n\r\n   \r\n    function registerVoter(address _voter, uint _voterId, string memory _password) public onlyAdmin {\r\n        require(!voters[_voter].registered, \"Voter already registered.\");\r\n\r\n        //store password as a hash for security\r\n        bytes32 passwordHash = keccak256(abi.encodePacked(_password));\r\n\r\n        voters[_voter] = Voter(true, false, 0, _voterId, passwordHash);\r\n        emit VoterRegistered(_voter, _voterId);\r\n    }\r\n     function registerAsVoter(uint _voterId, string memory _password) public {\r\n        require(!voters[msg.sender].registered, \"Voter already registered.\");\r\n        bytes32 passwordHash = keccak256(abi.encodePacked(_password));\r\n        voters[msg.sender] = Voter(true, false, 0, _voterId, passwordHash);\r\n        emit VoterRegistered(msg.sender, _voterId);\r\n    }\r\n    function authenticateVoter(uint _voterId, string memory _password) public view returns (bool) {\r\n        require(voters[msg.sender].registered, \"You are not registered to vote.\");\r\n        require(voters[msg.sender].voterId == _voterId, \"Invalid voter ID.\");\r\n        return voters[msg.sender].passwordHash == keccak256(abi.encodePacked(_password));\r\n    }\r\n\r\n\r\n\r\n    function startVoting() public onlyAdmin {\r\n        require(!votingActive, \"Voting already started.\");\r\n        votingActive = true;\r\n        emit VotingStarted();\r\n    }\r\n    \r\n\r\n    function vote(uint _candidateId, uint _voterId, string memory _password) public votingOpen {\r\n        require(voters[msg.sender].registered, \"You are not registered to vote.\");\r\n        require(!voters[msg.sender].voted, \"You have already voted.\");\r\n        require(_candidateId > 0 && _candidateId <= candidatesCount, \"Invalid candidate ID.\");\r\n        require(voters[msg.sender].voterId == _voterId, \"Incorrect Voter ID.\");\r\n\r\n        //verify password\r\n        bytes32 passwordHash = keccak256(abi.encodePacked(_password));\r\n        require(voters[msg.sender].passwordHash == passwordHash, \"Incorrect password!\");\r\n\r\n        voters[msg.sender].voted = true;\r\n        voters[msg.sender].vote = _candidateId;\r\n        candidates[_candidateId].voteCount++;\r\n\r\n        emit VoteCast(msg.sender, _candidateId);\r\n    }\r\n\r\n    function endVoting() public onlyAdmin {\r\n        require(votingActive, \"Voting is not active.\");\r\n        votingActive = false;\r\n        emit VotingEnded();\r\n    }\r\n\r\n    function getCandidate(uint _candidateId) public view returns (string memory, uint) {\r\n        require(_candidateId > 0 && _candidateId <= candidatesCount, \"Invalid candidate ID.\");\r\n        Candidate memory candidate = candidates[_candidateId];\r\n        return (candidate.name, candidate.voteCount);\r\n    }\r\n\r\n    function getVotingStatus() public view returns (bool) {\r\n        return votingActive;\r\n    }\r\n}\r\n",
  "sourcePath": "C:\\Users\\HP\\Downloads\\VS Code files\\BlockchainVotingApp\\blockchain-app\\contracts\\blockchain_contract.sol",
  "compiler": {
    "name": "solc",
    "version": "0.8.13+commit.abaa5c0e.Emscripten.clang"
  },
  "schemaVersion": "3.4.16",
  "updatedAt": "2025-03-27T06:08:47.701Z",
  "networkType": "ethereum",
  "devdoc": {
    "kind": "dev",
    "methods": {},
    "version": 1
  },
  "userdoc": {
    "kind": "user",
    "methods": {},
    "version": 1
  }
}