{
  "contractName": "blockchain_contract",
  "abi": [
    {
      "inputs": [],
      "stateMutability": "nonpayable",
      "type": "constructor"
    },
    {
      "anonymous": false,
      "inputs": [
        {
          "indexed": false,
          "internalType": "uint256",
          "name": "id",
          "type": "uint256"
        },
        {
          "indexed": false,
          "internalType": "string",
          "name": "name",
          "type": "string"
        }
      ],
      "name": "CandidateRegistered",
      "type": "event"
    },
    {
      "anonymous": false,
      "inputs": [
        {
          "indexed": false,
          "internalType": "address",
          "name": "voter",
          "type": "address"
        },
        {
          "indexed": false,
          "internalType": "uint256",
          "name": "candidateId",
          "type": "uint256"
        }
      ],
      "name": "VoteCast",
      "type": "event"
    },
    {
      "anonymous": false,
      "inputs": [
        {
          "indexed": false,
          "internalType": "address",
          "name": "voter",
          "type": "address"
        },
        {
          "indexed": false,
          "internalType": "string",
          "name": "username",
          "type": "string"
        }
      ],
      "name": "VoterRegistered",
      "type": "event"
    },
    {
      "anonymous": false,
      "inputs": [],
      "name": "VotingEnded",
      "type": "event"
    },
    {
      "anonymous": false,
      "inputs": [],
      "name": "VotingStarted",
      "type": "event"
    },
    {
      "inputs": [],
      "name": "admin",
      "outputs": [
        {
          "internalType": "address",
          "name": "",
          "type": "address"
        }
      ],
      "stateMutability": "view",
      "type": "function",
      "constant": true
    },
    {
      "inputs": [
        {
          "internalType": "uint256",
          "name": "",
          "type": "uint256"
        }
      ],
      "name": "candidates",
      "outputs": [
        {
          "internalType": "string",
          "name": "name",
          "type": "string"
        },
        {
          "internalType": "uint256",
          "name": "voteCount",
          "type": "uint256"
        }
      ],
      "stateMutability": "view",
      "type": "function",
      "constant": true
    },
    {
      "inputs": [],
      "name": "candidatesCount",
      "outputs": [
        {
          "internalType": "uint256",
          "name": "",
          "type": "uint256"
        }
      ],
      "stateMutability": "view",
      "type": "function",
      "constant": true
    },
    {
      "inputs": [
        {
          "internalType": "uint256",
          "name": "",
          "type": "uint256"
        }
      ],
      "name": "voterAddresses",
      "outputs": [
        {
          "internalType": "address",
          "name": "",
          "type": "address"
        }
      ],
      "stateMutability": "view",
      "type": "function",
      "constant": true
    },
    {
      "inputs": [
        {
          "internalType": "address",
          "name": "",
          "type": "address"
        }
      ],
      "name": "voters",
      "outputs": [
        {
          "internalType": "bool",
          "name": "registered",
          "type": "bool"
        },
        {
          "internalType": "bool",
          "name": "voted",
          "type": "bool"
        },
        {
          "internalType": "uint256",
          "name": "vote",
          "type": "uint256"
        },
        {
          "internalType": "string",
          "name": "name",
          "type": "string"
        },
        {
          "internalType": "uint256",
          "name": "birthYear",
          "type": "uint256"
        },
        {
          "internalType": "string",
          "name": "email",
          "type": "string"
        },
        {
          "internalType": "string",
          "name": "mobileNumber",
          "type": "string"
        },
        {
          "internalType": "string",
          "name": "username",
          "type": "string"
        },
        {
          "internalType": "bytes32",
          "name": "passwordHash",
          "type": "bytes32"
        }
      ],
      "stateMutability": "view",
      "type": "function",
      "constant": true
    },
    {
      "inputs": [],
      "name": "votingActive",
      "outputs": [
        {
          "internalType": "bool",
          "name": "",
          "type": "bool"
        }
      ],
      "stateMutability": "view",
      "type": "function",
      "constant": true
    },
    {
      "inputs": [
        {
          "internalType": "string",
          "name": "_name",
          "type": "string"
        },
        {
          "internalType": "uint256",
          "name": "_birthYear",
          "type": "uint256"
        },
        {
          "internalType": "string",
          "name": "_email",
          "type": "string"
        },
        {
          "internalType": "string",
          "name": "_mobileNumber",
          "type": "string"
        },
        {
          "internalType": "string",
          "name": "_username",
          "type": "string"
        },
        {
          "internalType": "string",
          "name": "_password",
          "type": "string"
        }
      ],
      "name": "registerAsVoter",
      "outputs": [],
      "stateMutability": "nonpayable",
      "type": "function"
    },
    {
      "inputs": [
        {
          "internalType": "string",
          "name": "_username",
          "type": "string"
        },
        {
          "internalType": "string",
          "name": "_password",
          "type": "string"
        }
      ],
      "name": "authenticateVoter",
      "outputs": [
        {
          "internalType": "bool",
          "name": "",
          "type": "bool"
        }
      ],
      "stateMutability": "view",
      "type": "function",
      "constant": true
    },
    {
      "inputs": [],
      "name": "startVoting",
      "outputs": [],
      "stateMutability": "nonpayable",
      "type": "function"
    },
    {
      "inputs": [
        {
          "internalType": "uint256",
          "name": "_candidateId",
          "type": "uint256"
        }
      ],
      "name": "vote",
      "outputs": [],
      "stateMutability": "nonpayable",
      "type": "function"
    },
    {
      "inputs": [],
      "name": "endVoting",
      "outputs": [],
      "stateMutability": "nonpayable",
      "type": "function"
    },
    {
      "inputs": [
        {
          "internalType": "uint256",
          "name": "_candidateId",
          "type": "uint256"
        }
      ],
      "name": "getCandidate",
      "outputs": [
        {
          "internalType": "string",
          "name": "",
          "type": "string"
        },
        {
          "internalType": "uint256",
          "name": "",
          "type": "uint256"
        }
      ],
      "stateMutability": "view",
      "type": "function",
      "constant": true
    },
    {
      "inputs": [],
      "name": "getVotingStatus",
      "outputs": [
        {
          "internalType": "bool",
          "name": "",
          "type": "bool"
        }
      ],
      "stateMutability": "view",
      "type": "function",
      "constant": true
    },
    {
      "inputs": [],
      "name": "getRegisteredVoters",
      "outputs": [
        {
          "internalType": "string[]",
          "name": "",
          "type": "string[]"
        }
      ],
      "stateMutability": "view",
      "type": "function",
      "constant": true
    }
  ],
  "bytecode": "0x60806040523480156200001157600080fd5b50600080546001600160a81b0319163360ff60a01b1916179055604080518082019091526005815264416c69636560d81b60208201526200005290620000a6565b6040805180820190915260038152622137b160e91b60208201526200007790620000a6565b604080518082019091526007815266436861726c696560c81b6020820152620000a090620000a6565b620002ae565b60038054906000620000b883620001ea565b9091555050604080518082018252828152600060208083018290526003548252600281529290208151805192939192620000f6928492019062000144565b50602082015181600101559050507f96b6e1d9af8279de0ae4d01600bcae708bdb292c4a8f8f150aff92f5caf56a42600354826040516200013992919062000212565b60405180910390a150565b828054620001529062000272565b90600052602060002090601f016020900481019282620001765760008555620001c1565b82601f106200019157805160ff1916838001178555620001c1565b82800160010185558215620001c1579182015b82811115620001c1578251825591602001919060010190620001a4565b50620001cf929150620001d3565b5090565b5b80821115620001cf5760008155600101620001d4565b6000600182016200020b57634e487b7160e01b600052601160045260246000fd5b5060010190565b82815260006020604081840152835180604085015260005b8181101562000248578581018301518582016060015282016200022a565b818111156200025b576000606083870101525b50601f01601f191692909201606001949350505050565b600181811c908216806200028757607f821691505b602082108103620002a857634e487b7160e01b600052602260045260246000fd5b50919050565b6116ce80620002be6000396000f3fe608060405234801561001057600080fd5b50600436106100ea5760003560e01c8063581c281c1161008c578063c3403ddf11610066578063c3403ddf146101e6578063dd0e2373146101ee578063e82cd3e214610219578063f851a4401461022c57600080fd5b8063581c281c146101995780636bdc838e146101ab578063a3ec138d146101be57600080fd5b80632d35a8a2116100c85780632d35a8a21461012a5780633477ee2e1461014157806335b8e82014610162578063408e27271461017557600080fd5b80630121b93f146100ef5780631ec6b60a146101045780632bc4a6e71461010c575b600080fd5b6101026100fd366004611114565b61023f565b005b61010261042b565b6101146104eb565b6040516101219190611189565b60405180910390f35b61013360035481565b604051908152602001610121565b61015461014f366004611114565b610676565b6040516101219291906111eb565b610154610170366004611114565b61071a565b60005461018990600160a01b900460ff1681565b6040519015158152602001610121565b600054600160a01b900460ff16610189565b6101896101b93660046112b0565b610837565b6101d16101cc366004611314565b610976565b60405161012199989796959493929190611344565b610102610be4565b6102016101fc366004611114565b610c95565b6040516001600160a01b039091168152602001610121565b6101026102273660046113c8565b610cbf565b600054610201906001600160a01b031681565b600054600160a01b900460ff166102955760405162461bcd60e51b81526020600482015260156024820152742b37ba34b7339034b9903737ba1030b1ba34bb329760591b60448201526064015b60405180910390fd5b3360009081526001602052604090205460ff166102f45760405162461bcd60e51b815260206004820152601f60248201527f596f7520617265206e6f74207265676973746572656420746f20766f74652e00604482015260640161028c565b33600090815260016020526040902054610100900460ff16156103595760405162461bcd60e51b815260206004820152601760248201527f596f75206861766520616c726561647920766f7465642e000000000000000000604482015260640161028c565b60008111801561036b57506003548111155b6103af5760405162461bcd60e51b815260206004820152601560248201527424b73b30b634b21031b0b73234b230ba329024a21760591b604482015260640161028c565b336000908152600160208181526040808420805461ff001916610100178155830185905584845260029091528220018054916103ea836114b8565b909155505060408051338152602081018390527fa36cc2bebb74db33e9f88110a07ef56e1b31b24b4c4f51b54b1664266e29f45b910160405180910390a150565b6000546001600160a01b031633146104555760405162461bcd60e51b815260040161028c906114d1565b600054600160a01b900460ff16156104af5760405162461bcd60e51b815260206004820152601760248201527f566f74696e6720616c726561647920737461727465642e000000000000000000604482015260640161028c565b6000805460ff60a01b1916600160a01b1781556040517f877e2548498f42b7975a186b94ef1d32c86d420b7b806dd2be2bea293b8959049190a1565b6000546060906001600160a01b031633146105185760405162461bcd60e51b815260040161028c906114d1565b60045460009067ffffffffffffffff8111156105365761053661120d565b60405190808252806020026020018201604052801561056957816020015b60608152602001906001900390816105545790505b50905060005b60045481101561067057600160006004838154811061059057610590611514565b60009182526020808320909101546001600160a01b03168352820192909252604001902060060180546105c29061152a565b80601f01602080910402602001604051908101604052809291908181526020018280546105ee9061152a565b801561063b5780601f106106105761010080835404028352916020019161063b565b820191906000526020600020905b81548152906001019060200180831161061e57829003601f168201915b505050505082828151811061065257610652611514565b60200260200101819052508080610668906114b8565b91505061056f565b50905090565b6002602052600090815260409020805481906106919061152a565b80601f01602080910402602001604051908101604052809291908181526020018280546106bd9061152a565b801561070a5780601f106106df5761010080835404028352916020019161070a565b820191906000526020600020905b8154815290600101906020018083116106ed57829003601f168201915b5050505050908060010154905082565b60606000808311801561072f57506003548311155b6107735760405162461bcd60e51b815260206004820152601560248201527424b73b30b634b21031b0b73234b230ba329024a21760591b604482015260640161028c565b60008381526002602052604080822081518083019092528054829082906107999061152a565b80601f01602080910402602001604051908101604052809291908181526020018280546107c59061152a565b80156108125780601f106107e757610100808354040283529160200191610812565b820191906000526020600020905b8154815290600101906020018083116107f557829003601f168201915b5050509183525050600191909101546020918201528151910151909590945092505050565b3360009081526001602052604081205460ff166108965760405162461bcd60e51b815260206004820152601f60248201527f596f7520617265206e6f74207265676973746572656420746f20766f74652e00604482015260640161028c565b826040516020016108a79190611564565b60408051601f198184030181528282528051602091820120336000908152600183529290922091926108dd926006019101611580565b60405160208183030381529060405280519060200120146109345760405162461bcd60e51b815260206004820152601160248201527024b73b30b634b2103ab9b2b93730b6b29760791b604482015260640161028c565b816040516020016109459190611564565b60408051808303601f1901815291815281516020928301203360009081526001909352912060070154149392505050565b600160208190526000918252604090912080549181015460028201805460ff808616956101009004169391906109ab9061152a565b80601f01602080910402602001604051908101604052809291908181526020018280546109d79061152a565b8015610a245780601f106109f957610100808354040283529160200191610a24565b820191906000526020600020905b815481529060010190602001808311610a0757829003601f168201915b505050505090806003015490806004018054610a3f9061152a565b80601f0160208091040260200160405190810160405280929190818152602001828054610a6b9061152a565b8015610ab85780601f10610a8d57610100808354040283529160200191610ab8565b820191906000526020600020905b815481529060010190602001808311610a9b57829003601f168201915b505050505090806005018054610acd9061152a565b80601f0160208091040260200160405190810160405280929190818152602001828054610af99061152a565b8015610b465780601f10610b1b57610100808354040283529160200191610b46565b820191906000526020600020905b815481529060010190602001808311610b2957829003601f168201915b505050505090806006018054610b5b9061152a565b80601f0160208091040260200160405190810160405280929190818152602001828054610b879061152a565b8015610bd45780601f10610ba957610100808354040283529160200191610bd4565b820191906000526020600020905b815481529060010190602001808311610bb757829003601f168201915b5050505050908060070154905089565b6000546001600160a01b03163314610c0e5760405162461bcd60e51b815260040161028c906114d1565b600054600160a01b900460ff16610c5f5760405162461bcd60e51b81526020600482015260156024820152742b37ba34b7339034b9903737ba1030b1ba34bb329760591b604482015260640161028c565b6000805460ff60a01b191681556040517f7a19ed057db79e3c2fa0b97a54b43bef4fce74b31bb6c01af514b9a18a7f70ab9190a1565b60048181548110610ca557600080fd5b6000918252602090912001546001600160a01b0316905081565b3360009081526001602052604090205460ff1615610d1f5760405162461bcd60e51b815260206004820152601960248201527f566f74657220616c726561647920726567697374657265642e00000000000000604482015260640161028c565b60128561016d6018603c610d33814261161b565b610d3d919061161b565b610d47919061161b565b610d51919061161b565b610d5d906107b261163d565b610d679190611655565b1015610dcc5760405162461bcd60e51b815260206004820152602e60248201527f596f75206d757374206265206174206c65617374203138207965617273206f6c60448201526d32103a37903932b3b4b9ba32b91760911b606482015260840161028c565b60058451118015610e0e57508360048551610de79190611655565b81518110610df757610df7611514565b6020910101516001600160f81b031916601760f91b145b610e6a5760405162461bcd60e51b815260206004820152602760248201527f496e76616c696420656d61696c20666f726d617420286d75737420656e6420696044820152666e202e636f6d2960c81b606482015260840161028c565b8251600a14610ecc5760405162461bcd60e51b815260206004820152602860248201527f4d6f62696c65206e756d626572206d7573742062652065786163746c79203130604482015267103234b3b4ba399760c11b606482015260840161028c565b600081604051602001610edf9190611564565b60408051808303601f1901815282825280516020918201206101208401835260018085526000838601818152868601828152606088018f8152608089018f905260a089018e905260c089018d905260e089018c9052610100808a018790523385528588529790932088518154935161ffff1990941690151561ff001916179215159097029190911786555191850191909155518051919550610f8892600285019291019061107b565b506080820151600382015560a08201518051610fae91600484019160209091019061107b565b5060c08201518051610fca91600584019160209091019061107b565b5060e08201518051610fe691600684019160209091019061107b565b506101009190910151600790910155600480546001810182556000919091527f8a35acfbc15ff81a39ae7d344fd709f28e8600b4aa8c65c6b64bfe7fe36bd19b0180546001600160a01b031916339081179091556040517fffeb7702be7dcd8fee170d954b70afb9a7c78f7f5cff232d037e7b9d8243356a9161106a91869061166c565b60405180910390a150505050505050565b8280546110879061152a565b90600052602060002090601f0160209004810192826110a957600085556110ef565b82601f106110c257805160ff19168380011785556110ef565b828001600101855582156110ef579182015b828111156110ef5782518255916020019190600101906110d4565b506110fb9291506110ff565b5090565b5b808211156110fb5760008155600101611100565b60006020828403121561112657600080fd5b5035919050565b60005b83811015611148578181015183820152602001611130565b83811115611157576000848401525b50505050565b6000815180845261117581602086016020860161112d565b601f01601f19169290920160200192915050565b6000602080830181845280855180835260408601915060408160051b870101925083870160005b828110156111de57603f198886030184526111cc85835161115d565b945092850192908501906001016111b0565b5092979650505050505050565b6040815260006111fe604083018561115d565b90508260208301529392505050565b634e487b7160e01b600052604160045260246000fd5b600082601f83011261123457600080fd5b813567ffffffffffffffff8082111561124f5761124f61120d565b604051601f8301601f19908116603f011681019082821181831017156112775761127761120d565b8160405283815286602085880101111561129057600080fd5b836020870160208301376000602085830101528094505050505092915050565b600080604083850312156112c357600080fd5b823567ffffffffffffffff808211156112db57600080fd5b6112e786838701611223565b935060208501359150808211156112fd57600080fd5b5061130a85828601611223565b9150509250929050565b60006020828403121561132657600080fd5b81356001600160a01b038116811461133d57600080fd5b9392505050565b60006101208b151583528a1515602084015289604084015280606084015261136e8184018a61115d565b905087608084015282810360a0840152611388818861115d565b905082810360c084015261139c818761115d565b905082810360e08401526113b0818661115d565b915050826101008301529a9950505050505050505050565b60008060008060008060c087890312156113e157600080fd5b863567ffffffffffffffff808211156113f957600080fd5b6114058a838b01611223565b975060208901359650604089013591508082111561142257600080fd5b61142e8a838b01611223565b9550606089013591508082111561144457600080fd5b6114508a838b01611223565b9450608089013591508082111561146657600080fd5b6114728a838b01611223565b935060a089013591508082111561148857600080fd5b5061149589828a01611223565b9150509295509295509295565b634e487b7160e01b600052601160045260246000fd5b6000600182016114ca576114ca6114a2565b5060010190565b60208082526023908201527f4f6e6c792061646d696e2063616e20706572666f726d2074686973206163746960408201526237b71760e91b606082015260800190565b634e487b7160e01b600052603260045260246000fd5b600181811c9082168061153e57607f821691505b60208210810361155e57634e487b7160e01b600052602260045260246000fd5b50919050565b6000825161157681846020870161112d565b9190910192915050565b600080835481600182811c91508083168061159c57607f831692505b602080841082036115bb57634e487b7160e01b86526022600452602486fd5b8180156115cf57600181146115e05761160d565b60ff1986168952848901965061160d565b60008a81526020902060005b868110156116055781548b8201529085019083016115ec565b505084890196505b509498975050505050505050565b60008261163857634e487b7160e01b600052601260045260246000fd5b500490565b60008219821115611650576116506114a2565b500190565b600082821015611667576116676114a2565b500390565b6001600160a01b03831681526040602082018190526000906116909083018461115d565b94935050505056fea2646970667358221220cdf54a5c0e7bf920a3d90ea6ac8b48978815aa985e8a13245843aec012d38cd664736f6c634300080d0033",
  "immutableReferences": {},
  "source": "// SPDX-License-Identifier: MIT\r\npragma solidity ^0.8.13;\r\n\r\ncontract blockchain_contract {\r\n    address public admin;\r\n    bool public votingActive;\r\n\r\n    struct Candidate {\r\n        string name;\r\n        uint voteCount;\r\n    }\r\n\r\n    struct Voter {\r\n    bool registered;\r\n    bool voted;\r\n    uint vote;\r\n    string name;\r\n    uint birthYear; // Change from string to uint\r\n    string email;\r\n    string mobileNumber;\r\n    string username;\r\n    bytes32 passwordHash;\r\n}\r\n\r\n\r\n    mapping(address => Voter) public voters;\r\n    mapping(uint => Candidate) public candidates;\r\n    uint public candidatesCount;\r\n\r\n    address[] public voterAddresses; // Stores all registered voter addresses\r\n\r\n    event CandidateRegistered(uint id, string name);\r\n    event VoterRegistered(address voter, string username);\r\n    event VoteCast(address voter, uint candidateId);\r\n    event VotingStarted();\r\n    event VotingEnded();\r\n\r\n    modifier onlyAdmin() {\r\n        require(msg.sender == admin, \"Only admin can perform this action.\");\r\n        _;\r\n    }\r\n\r\n    modifier votingOpen() {\r\n        require(votingActive, \"Voting is not active.\");\r\n        _;\r\n    }\r\n\r\n    constructor() {\r\n        admin = msg.sender;\r\n        votingActive = false;\r\n\r\n        // Pre-registering sample candidates\r\n        addInitialCandidate(\"Alice\");\r\n        addInitialCandidate(\"Bob\");\r\n        addInitialCandidate(\"Charlie\");\r\n    }\r\n\r\n    function addInitialCandidate(string memory _name) internal {\r\n        candidatesCount++;\r\n        candidates[candidatesCount] = Candidate(_name, 0);\r\n        emit CandidateRegistered(candidatesCount, _name);\r\n    }\r\n\r\n    function calculateAge(string memory _dob) internal view returns (uint) {\r\n        // Example: If _dob = \"2000-01-01\", parse it into year\r\n        bytes memory dobBytes = bytes(_dob);\r\n        require(dobBytes.length == 10, \"Invalid DOB format, use YYYY-MM-DD\");\r\n\r\n        uint year = uint8(dobBytes[0]) * 1000 + uint8(dobBytes[1]) * 100 + uint8(dobBytes[2]) * 10 + uint8(dobBytes[3]);\r\n        uint currentYear = block.timestamp / 60 / 60 / 24 / 365 + 1970; // Approximate year from timestamp\r\n\r\n        return currentYear - year;\r\n    }\r\n\r\n    function registerAsVoter(\r\n    string memory _name,\r\n    uint _birthYear, // Change type from string to uint\r\n    string memory _email,\r\n    string memory _mobileNumber,\r\n    string memory _username,\r\n    string memory _password\r\n) public {\r\n    require(!voters[msg.sender].registered, \"Voter already registered.\");\r\n    require((block.timestamp / 60 / 60 / 24 / 365 + 1970) - _birthYear >= 18, \"You must be at least 18 years old to register.\"); // Age check\r\n\r\n    require(bytes(_email).length > 5 && bytes(_email)[bytes(_email).length - 4] == '.', \"Invalid email format (must end in .com)\");\r\n    require(bytes(_mobileNumber).length == 10, \"Mobile number must be exactly 10 digits.\");\r\n\r\n    bytes32 passwordHash = keccak256(abi.encodePacked(_password));\r\n\r\n    voters[msg.sender] = Voter(true, false, 0, _name, _birthYear, _email, _mobileNumber, _username, passwordHash);\r\n    voterAddresses.push(msg.sender); // Store the voter's address\r\n\r\n    emit VoterRegistered(msg.sender, _username);\r\n}\r\n\r\n\r\n\r\n\r\n    function authenticateVoter(string memory _username, string memory _password) public view returns (bool) {\r\n        require(voters[msg.sender].registered, \"You are not registered to vote.\");\r\n        require(keccak256(abi.encodePacked(voters[msg.sender].username)) == keccak256(abi.encodePacked(_username)), \"Invalid username.\");\r\n        return voters[msg.sender].passwordHash == keccak256(abi.encodePacked(_password));\r\n    }\r\n\r\n    function startVoting() public onlyAdmin {\r\n        require(!votingActive, \"Voting already started.\");\r\n        votingActive = true;\r\n        emit VotingStarted();\r\n    }\r\n\r\n    function vote(uint _candidateId) public votingOpen {\r\n        require(voters[msg.sender].registered, \"You are not registered to vote.\");\r\n        require(!voters[msg.sender].voted, \"You have already voted.\");\r\n        require(_candidateId > 0 && _candidateId <= candidatesCount, \"Invalid candidate ID.\");\r\n\r\n        voters[msg.sender].voted = true;\r\n        voters[msg.sender].vote = _candidateId;\r\n        candidates[_candidateId].voteCount++;\r\n\r\n        emit VoteCast(msg.sender, _candidateId);\r\n    }\r\n\r\n    function endVoting() public onlyAdmin {\r\n        require(votingActive, \"Voting is not active.\");\r\n        votingActive = false;\r\n        emit VotingEnded();\r\n    }\r\n\r\n    function getCandidate(uint _candidateId) public view returns (string memory, uint) {\r\n        require(_candidateId > 0 && _candidateId <= candidatesCount, \"Invalid candidate ID.\");\r\n        Candidate memory candidate = candidates[_candidateId];\r\n        return (candidate.name, candidate.voteCount);\r\n    }\r\n\r\n    function getVotingStatus() public view returns (bool) {\r\n        return votingActive;\r\n    }\r\n\r\n    function getRegisteredVoters() public view onlyAdmin returns (string[] memory) {\r\n        string[] memory usernames = new string[](voterAddresses.length);\r\n        for (uint i = 0; i < voterAddresses.length; i++) {\r\n            usernames[i] = voters[voterAddresses[i]].username;\r\n        }\r\n        return usernames;\r\n    }\r\n}\r\n",
  "sourcePath": "C:\\Users\\HP\\Downloads\\VS Code files\\BlockchainVotingApp\\blockchain-app\\contracts\\blockchain_contract.sol",
  "compiler": {
    "name": "solc",
    "version": "0.8.13+commit.abaa5c0e.Emscripten.clang"
  },
  "schemaVersion": "3.4.16",
  "updatedAt": "2025-03-28T07:58:37.807Z",
  "networkType": "ethereum",
  "devdoc": {
    "kind": "dev",
    "methods": {},
    "version": 1
  },
  "userdoc": {
    "kind": "user",
    "methods": {},
    "version": 1
  }
}