{
  "contractName": "blockchain_contract",
  "abi": [
    {
      "inputs": [],
      "stateMutability": "nonpayable",
      "type": "constructor"
    },
    {
      "anonymous": false,
      "inputs": [
        {
          "indexed": false,
          "internalType": "uint256",
          "name": "id",
          "type": "uint256"
        },
        {
          "indexed": false,
          "internalType": "string",
          "name": "name",
          "type": "string"
        }
      ],
      "name": "CandidateRegistered",
      "type": "event"
    },
    {
      "anonymous": false,
      "inputs": [
        {
          "indexed": false,
          "internalType": "address",
          "name": "voter",
          "type": "address"
        },
        {
          "indexed": false,
          "internalType": "uint256",
          "name": "candidateId",
          "type": "uint256"
        }
      ],
      "name": "VoteCast",
      "type": "event"
    },
    {
      "anonymous": false,
      "inputs": [
        {
          "indexed": false,
          "internalType": "address",
          "name": "voter",
          "type": "address"
        }
      ],
      "name": "VoterRegistered",
      "type": "event"
    },
    {
      "anonymous": false,
      "inputs": [],
      "name": "VotingEnded",
      "type": "event"
    },
    {
      "anonymous": false,
      "inputs": [],
      "name": "VotingStarted",
      "type": "event"
    },
    {
      "inputs": [],
      "name": "admin",
      "outputs": [
        {
          "internalType": "address",
          "name": "",
          "type": "address"
        }
      ],
      "stateMutability": "view",
      "type": "function",
      "constant": true
    },
    {
      "inputs": [
        {
          "internalType": "uint256",
          "name": "",
          "type": "uint256"
        }
      ],
      "name": "candidates",
      "outputs": [
        {
          "internalType": "string",
          "name": "name",
          "type": "string"
        },
        {
          "internalType": "uint256",
          "name": "voteCount",
          "type": "uint256"
        }
      ],
      "stateMutability": "view",
      "type": "function",
      "constant": true
    },
    {
      "inputs": [],
      "name": "candidatesCount",
      "outputs": [
        {
          "internalType": "uint256",
          "name": "",
          "type": "uint256"
        }
      ],
      "stateMutability": "view",
      "type": "function",
      "constant": true
    },
    {
      "inputs": [
        {
          "internalType": "address",
          "name": "",
          "type": "address"
        }
      ],
      "name": "voters",
      "outputs": [
        {
          "internalType": "bool",
          "name": "registered",
          "type": "bool"
        },
        {
          "internalType": "bool",
          "name": "voted",
          "type": "bool"
        },
        {
          "internalType": "uint256",
          "name": "vote",
          "type": "uint256"
        }
      ],
      "stateMutability": "view",
      "type": "function",
      "constant": true
    },
    {
      "inputs": [],
      "name": "votingActive",
      "outputs": [
        {
          "internalType": "bool",
          "name": "",
          "type": "bool"
        }
      ],
      "stateMutability": "view",
      "type": "function",
      "constant": true
    },
    {
      "inputs": [
        {
          "internalType": "address",
          "name": "_voter",
          "type": "address"
        }
      ],
      "name": "registerVoter",
      "outputs": [],
      "stateMutability": "nonpayable",
      "type": "function"
    },
    {
      "inputs": [],
      "name": "startVoting",
      "outputs": [],
      "stateMutability": "nonpayable",
      "type": "function"
    },
    {
      "inputs": [
        {
          "internalType": "uint256",
          "name": "_candidateId",
          "type": "uint256"
        }
      ],
      "name": "vote",
      "outputs": [],
      "stateMutability": "nonpayable",
      "type": "function"
    },
    {
      "inputs": [],
      "name": "endVoting",
      "outputs": [],
      "stateMutability": "nonpayable",
      "type": "function"
    },
    {
      "inputs": [
        {
          "internalType": "uint256",
          "name": "_candidateId",
          "type": "uint256"
        }
      ],
      "name": "getCandidate",
      "outputs": [
        {
          "internalType": "string",
          "name": "",
          "type": "string"
        },
        {
          "internalType": "uint256",
          "name": "",
          "type": "uint256"
        }
      ],
      "stateMutability": "view",
      "type": "function",
      "constant": true
    },
    {
      "inputs": [],
      "name": "getVotingStatus",
      "outputs": [
        {
          "internalType": "bool",
          "name": "",
          "type": "bool"
        }
      ],
      "stateMutability": "view",
      "type": "function",
      "constant": true
    }
  ],
  "bytecode": "0x60806040523480156200001157600080fd5b50600080546001600160a81b0319163360ff60a01b1916179055604080518082019091526005815264416c69636560d81b60208201526200005290620000a6565b6040805180820190915260038152622137b160e91b60208201526200007790620000a6565b604080518082019091526007815266436861726c696560c81b6020820152620000a090620000a6565b620002ae565b60038054906000620000b883620001ea565b9091555050604080518082018252828152600060208083018290526003548252600281529290208151805192939192620000f6928492019062000144565b50602082015181600101559050507f96b6e1d9af8279de0ae4d01600bcae708bdb292c4a8f8f150aff92f5caf56a42600354826040516200013992919062000212565b60405180910390a150565b828054620001529062000272565b90600052602060002090601f016020900481019282620001765760008555620001c1565b82601f106200019157805160ff1916838001178555620001c1565b82800160010185558215620001c1579182015b82811115620001c1578251825591602001919060010190620001a4565b50620001cf929150620001d3565b5090565b5b80821115620001cf5760008155600101620001d4565b6000600182016200020b57634e487b7160e01b600052601160045260246000fd5b5060010190565b82815260006020604081840152835180604085015260005b8181101562000248578581018301518582016060015282016200022a565b818111156200025b576000606083870101525b50601f01601f191692909201606001949350505050565b600181811c908216806200028757607f821691505b602082108103620002a857634e487b7160e01b600052602260045260246000fd5b50919050565b6109a980620002be6000396000f3fe608060405234801561001057600080fd5b50600436106100a95760003560e01c806338db6dd31161007157806338db6dd31461011b578063408e27271461012e578063581c281c14610152578063a3ec138d14610164578063c3403ddf146101b5578063f851a440146101bd57600080fd5b80630121b93f146100ae5780631ec6b60a146100c35780632d35a8a2146100cb5780633477ee2e146100e757806335b8e82014610108575b600080fd5b6100c16100bc366004610829565b6101e8565b005b6100c16103d5565b6100d460035481565b6040519081526020015b60405180910390f35b6100fa6100f5366004610829565b610495565b6040516100de929190610842565b6100fa610116366004610829565b610539565b6100c161012936600461089f565b610656565b60005461014290600160a01b900460ff1681565b60405190151581526020016100de565b600054600160a01b900460ff16610142565b61019861017236600461089f565b6001602081905260009182526040909120805491015460ff808316926101009004169083565b6040805193151584529115156020840152908201526060016100de565b6100c1610778565b6000546101d0906001600160a01b031681565b6040516001600160a01b0390911681526020016100de565b600054600160a01b900460ff1661023e5760405162461bcd60e51b81526020600482015260156024820152742b37ba34b7339034b9903737ba1030b1ba34bb329760591b60448201526064015b60405180910390fd5b3360009081526001602052604090205460ff1661029d5760405162461bcd60e51b815260206004820152601f60248201527f596f7520617265206e6f74207265676973746572656420746f20766f74652e006044820152606401610235565b33600090815260016020526040902054610100900460ff16156103025760405162461bcd60e51b815260206004820152601760248201527f596f75206861766520616c726561647920766f7465642e0000000000000000006044820152606401610235565b60008111801561031457506003548111155b6103585760405162461bcd60e51b815260206004820152601560248201527424b73b30b634b21031b0b73234b230ba329024a21760591b6044820152606401610235565b336000908152600160208181526040808420805461ff00191661010017815583018590558484526002909152822001805491610393836108cf565b909155505060408051338152602081018390527fa36cc2bebb74db33e9f88110a07ef56e1b31b24b4c4f51b54b1664266e29f45b91015b60405180910390a150565b6000546001600160a01b031633146103ff5760405162461bcd60e51b8152600401610235906108f6565b600054600160a01b900460ff16156104595760405162461bcd60e51b815260206004820152601760248201527f566f74696e6720616c726561647920737461727465642e0000000000000000006044820152606401610235565b6000805460ff60a01b1916600160a01b1781556040517f877e2548498f42b7975a186b94ef1d32c86d420b7b806dd2be2bea293b8959049190a1565b6002602052600090815260409020805481906104b090610939565b80601f01602080910402602001604051908101604052809291908181526020018280546104dc90610939565b80156105295780601f106104fe57610100808354040283529160200191610529565b820191906000526020600020905b81548152906001019060200180831161050c57829003601f168201915b5050505050908060010154905082565b60606000808311801561054e57506003548311155b6105925760405162461bcd60e51b815260206004820152601560248201527424b73b30b634b21031b0b73234b230ba329024a21760591b6044820152606401610235565b60008381526002602052604080822081518083019092528054829082906105b890610939565b80601f01602080910402602001604051908101604052809291908181526020018280546105e490610939565b80156106315780601f1061060657610100808354040283529160200191610631565b820191906000526020600020905b81548152906001019060200180831161061457829003601f168201915b5050509183525050600191909101546020918201528151910151909590945092505050565b6000546001600160a01b031633146106805760405162461bcd60e51b8152600401610235906108f6565b6001600160a01b03811660009081526001602052604090205460ff16156106e95760405162461bcd60e51b815260206004820152601960248201527f566f74657220616c726561647920726567697374657265642e000000000000006044820152606401610235565b604080516060810182526001808252600060208084018281528486018381526001600160a01b0388168085528584529387902095518654925161ffff1990931690151561ff001916176101009215159290920291909117855551939092019290925591519081527fb6be2187d059cc2a55fe29e0e503b566e1e0f8c8780096e185429350acffd3dd91016103ca565b6000546001600160a01b031633146107a25760405162461bcd60e51b8152600401610235906108f6565b600054600160a01b900460ff166107f35760405162461bcd60e51b81526020600482015260156024820152742b37ba34b7339034b9903737ba1030b1ba34bb329760591b6044820152606401610235565b6000805460ff60a01b191681556040517f7a19ed057db79e3c2fa0b97a54b43bef4fce74b31bb6c01af514b9a18a7f70ab9190a1565b60006020828403121561083b57600080fd5b5035919050565b604081526000835180604084015260005b818110156108705760208187018101516060868401015201610853565b81811115610882576000606083860101525b50602083019390935250601f91909101601f191601606001919050565b6000602082840312156108b157600080fd5b81356001600160a01b03811681146108c857600080fd5b9392505050565b6000600182016108ef57634e487b7160e01b600052601160045260246000fd5b5060010190565b60208082526023908201527f4f6e6c792061646d696e2063616e20706572666f726d2074686973206163746960408201526237b71760e91b606082015260800190565b600181811c9082168061094d57607f821691505b60208210810361096d57634e487b7160e01b600052602260045260246000fd5b5091905056fea2646970667358221220932859ef86d770dbb05f4f2d38d9eb3b7dbb64dd300e9d47f93fb385fc80c91f64736f6c634300080d0033",
  "immutableReferences": {},
  "source": "// SPDX-License-Identifier: MIT\r\npragma solidity ^0.8.13;\r\n\r\ncontract blockchain_contract {\r\n    address public admin;\r\n    bool public votingActive;\r\n\r\n    struct Candidate {\r\n        string name;\r\n        uint voteCount;\r\n    }\r\n\r\n    struct Voter {\r\n        bool registered;\r\n        bool voted;\r\n        uint vote;\r\n    }\r\n\r\n    mapping(address => Voter) public voters;\r\n    mapping(uint => Candidate) public candidates;\r\n    uint public candidatesCount;\r\n\r\n    event CandidateRegistered(uint id, string name);\r\n    event VoterRegistered(address voter);\r\n    event VoteCast(address voter, uint candidateId);\r\n    event VotingStarted();\r\n    event VotingEnded();\r\n\r\n    modifier onlyAdmin() {\r\n        require(msg.sender == admin, \"Only admin can perform this action.\");\r\n        _;\r\n    }\r\n\r\n    modifier votingOpen() {\r\n        require(votingActive, \"Voting is not active.\");\r\n        _;\r\n    }\r\n\r\n    constructor() {\r\n        admin = msg.sender;\r\n        votingActive = false;\r\n\r\n        // Pre-registering sample candidates\r\n        addInitialCandidate(\"Alice\");\r\n        addInitialCandidate(\"Bob\");\r\n        addInitialCandidate(\"Charlie\");\r\n    }\r\n\r\n    function addInitialCandidate(string memory _name) internal {\r\n        candidatesCount++;\r\n        candidates[candidatesCount] = Candidate(_name, 0);\r\n        emit CandidateRegistered(candidatesCount, _name);\r\n    }\r\n\r\n    function registerVoter(address _voter) public onlyAdmin {\r\n        require(!voters[_voter].registered, \"Voter already registered.\");\r\n        voters[_voter] = Voter(true, false, 0);\r\n        emit VoterRegistered(_voter);\r\n    }\r\n\r\n    function startVoting() public onlyAdmin {\r\n        require(!votingActive, \"Voting already started.\");\r\n        votingActive = true;\r\n        emit VotingStarted();\r\n    }\r\n\r\n    function vote(uint _candidateId) public votingOpen {\r\n        require(voters[msg.sender].registered, \"You are not registered to vote.\");\r\n        require(!voters[msg.sender].voted, \"You have already voted.\");\r\n        require(_candidateId > 0 && _candidateId <= candidatesCount, \"Invalid candidate ID.\");\r\n\r\n        voters[msg.sender].voted = true;\r\n        voters[msg.sender].vote = _candidateId;\r\n        candidates[_candidateId].voteCount++;\r\n\r\n        emit VoteCast(msg.sender, _candidateId);\r\n    }\r\n\r\n    function endVoting() public onlyAdmin {\r\n        require(votingActive, \"Voting is not active.\");\r\n        votingActive = false;\r\n        emit VotingEnded();\r\n    }\r\n\r\n    function getCandidate(uint _candidateId) public view returns (string memory, uint) {\r\n        require(_candidateId > 0 && _candidateId <= candidatesCount, \"Invalid candidate ID.\");\r\n        Candidate memory candidate = candidates[_candidateId];\r\n        return (candidate.name, candidate.voteCount);\r\n    }\r\n\r\n    function getVotingStatus() public view returns (bool) {\r\n        return votingActive;\r\n    }\r\n}\r\n",
  "sourcePath": "C:\\websites\\evoting.2\\blockchain-app\\contracts\\blockchain_contract.sol",
  "compiler": {
    "name": "solc",
    "version": "0.8.13+commit.abaa5c0e.Emscripten.clang"
  },
  "schemaVersion": "3.4.16",
  "updatedAt": "2025-03-13T10:16:43.437Z",
  "networkType": "ethereum",
  "devdoc": {
    "kind": "dev",
    "methods": {},
    "version": 1
  },
  "userdoc": {
    "kind": "user",
    "methods": {},
    "version": 1
  }
}